:10000000CAEF00F08E0E006E0BC001F00AC002F0C5
:10001000036A015209E102C001F0026A080E005EA3
:10002000015202E1006A08D0D89001BE04D0023625
:1000300001360006F9D7019EF9EF00F00A50D8B456
:1000400071D0006E0E50D8B46DD0002604E3810E3E
:10005000002668E204D07F0E005E64E363E00BC01C
:1000600012F00F50121A0B8E0F8E0D501102F4CF9A
:1000700014F00C501002F4CF03F0F3CF13F0110280
:10008000F3501426F4501322000E03220D501002D8
:10009000F3501426F4501322000E026A03220222A7
:1000A0000B501102F3501326F4500322000E0222CB
:1000B0000B501002F3500326F4500222000E016A86
:1000C00001220D500F02F3501326F4500322000EAC
:1000D000022201220C500F02F3500326F450022298
:1000E000000E01220B500F02F3500226F4500122A1
:1000F000002A01BE05D0133603360236013600064B
:10010000000E13AE0AD0032A02220122015005E19B
:10011000025003E1035001E1002A12BE018E12AE2B
:10012000019E04D0006A016A026A036A0AEF01F0C4
:100130008E0E006E0850005E09C002F00AC001F089
:10014000028E005209E0D890025202E1015204E00E
:1001500002320132002EF7D709AE05D0011E021E71
:10016000012AD8B4022A13EF01F00950016A085C91
:1001700003E208C000F00CD0006A080E0A6E0836D0
:1001800000360950005CD8B0006E01360A2EF7D751
:100190001AEF01F0F86AD09E0080C180C182C1844C
:1001A000C196070EB46EC190C182C184C186C19C44
:1001B000C28CC28EC18EC280000E016EC250C70BAF
:1001C0000110C26EC80ED56EB50ECD6E9D809D8A93
:1001D000C00EF212D26AC284C2B4FED7C4CF03F0FA
:1001E000C3CF08F0C4CF09F0C4CF0BF0C3CF0AF0DF
:1001F00009D703C00DF002C00CF001C00BF000C025
:100200000AF0C00E116E3E0E106E7A0E0F6E7D0E4D
:100210000E6E14D703C00BF002C00AF001C009F043
:1002200000C008F085D701C005F005C008F00A0E2F
:10023000096E9BD701C006F00650060DF3CF07F0FC
:0E02400007500524086E956A8C6EC5D7030022
:020000040030CA
:0E00000000220E0E000081000FC00FE00F4026
:00000001FF
;PIC18F458
;CRC=981C  CREATED="14-févr.-17 20:41"
