:100000006BEF01F0EA6A090EE96EEF500DE0060EA3
:10001000016E006A002EFED7012EFBD77B0E006E0C
:10002000002EFED7EF2EF3D712008E0E006E09C001
:1000300001F008C002F0036A015209E102C001F0B8
:10004000026A080E005E015202E1006A08D0D890F0
:1000500001BE04D0023601360006F9D7019E9EEF9C
:1000600001F00850D8B471D0006E0C50D8B46DD0E7
:10007000002604E3810E002668E204D07F0E005EB5
:1000800064E363E009C010F00D50101A098E0D8E64
:100090000B500F02F4CF12F00A500E02F4CF03F00F
:1000A000F3CF11F00F02F3501226F4501122000E7C
:1000B00003220B500E02F3501226F4501122000EB0
:1000C000026A0322022209500F02F3501126F45053
:1000D0000322000E022209500E02F3500326F450B0
:1000E0000222000E016A01220B500D02F35011266C
:1000F000F4500322000E022201220A500D02F35096
:100100000326F4500222000E012209500D02F35082
:100110000226F4500122002A01BE05D01136033612
:10012000023601360006000E11AE0AD0032A022262
:100130000122015005E1025003E1035001E1002AD0
:1001400010BE018E10AE019E04D0006A016A026AE0
:10015000036AAFEF01F08E0E006E0650005E07C01E
:1001600002F008C001F0028E005209E0D89002525D
:1001700002E1015204E002320132002EF7D707AE4D
:1001800005D0011E021E012AD8B4022AB8EF01F0E0
:100190000D50016A0C5C03E20CC000F00CD0006A48
:1001A000080E0E6E0C3600360D50005CD8B0006E96
:1001B00001360E2EF7D71200200E07A8300E086E5B
:1001C00006C000F006AE08D0001E002A00C006F0EF
:1001D0002D0E086E078E0780015006C00CF0640ECD
:1001E0000D6ED6DF00C006F0300E0124096E06C089
:1001F0000CF00A0E0D6ECCDF300E00240B6E300EAC
:1002000001240A6E08C000F0300E095C04E0078289
:1002100007BE078412D008C009F0200E086E300E09
:100220000A5C04E0078007BE078207D0D8A40780D5
:1002300004E109C00AF0200E096E07B405D007B228
:1002400007D007B009D00CD008509EA8FED7AD6EDD
:1002500009509EA8FED7AD6E0A509EA8FED7AD6E7F
:100260000B509EA8FED7AD6EBFEF01F006501908E7
:1002700005E294908B9094928B8202D094908B8024
:10028000C2EF01F006C00CF00A0E0D6E81DF01C056
:100290000CF00A0E0D6E7CDF00C007F006C00CF0FB
:1002A0000A0E0D6E75DF00C008F0956A07C08CFF5E
:1002B00096908D8096928D920A0E096EA3DE956AB5
:1002C00008C08CFF96908D9096928D820A0E096ED2
:1002D00099DEC5EF01F0F86AD09E810EAF6EA60ED2
:1002E000AC6E900EAB6EC180C182C184C196070E08
:1002F000B46EC190C182C184C186000E016EC2502D
:10030000C70B0110C26EC19CC28CC28EC18EC2804E
:10031000C80ED56E850ECD6ED26A0A0E096E72DEDB
:10032000C284C2B4FED7C4CF03F0C3CF06F0C4CF9B
:1003300007F0C4CF09F0C3CF08F077D603C00BF0A5
:1003400002C00AF001C009F000C008F0900E0F6E64
:100350003E0E0E6E7A0E0D6E7D0E0C6E82D603C0B2
:1003600009F002C008F001C007F000C006F0F3D6A3
:1003700001C005F005C006F0180E076E1DD705C0B8
:0E03800006F074D705C006F07DD7CAD703007B
:020000040030CA
:0E00000000220E0E000081000FC00FE00F4026
:00000001FF
;PIC18F458
;CRC=8B92  CREATED="27-févr.-17 12:27"
