:1000000060EF03F04454452E74726573683A2564BA
:100010000A004454452E74656D703A25640A000048
:100020000900F6CF13F0F7CF14F0F5509EA8FED7D5
:10003000AD6E13C0F6FF14C0F7FF122EF1D71200F9
:100040001950016A185C03E218C000F00CD0006A75
:10005000080E1A6E183600361950005CD8B0006EC3
:1000600001361A2EF7D71200200E13A8300E146E88
:1000700012C000F012AE08D0001E002A00C012F01C
:100080002D0E146E138E1380015012C018F0640EE2
:10009000196ED6DF00C012F0300E0124156E12C0AA
:1000A00018F00A0E196ECCDF300E0024176E300ED9
:1000B0000124166E14C000F0300E155C04E01382AB
:1000C00013BE138412D014C015F0200E146E300E1F
:1000D000165C04E0138013BE138207D0D8A41380EB
:1000E00004E115C016F0200E156E13B405D013B23E
:1000F00007D013B009D00CD014509EA8FED7AD6E17
:1001000015509EA8FED7AD6E16509EA8FED7AD6EB8
:1001100017509EA8FED7AD6E1200EA6A150EE96E62
:10012000EF500DE0060E016E006A002EFED7012E84
:10013000FBD77B0E006E002EFED7EF2EF3D71200FA
:100140008E0E006E15C001F014C002F0036A015259
:1001500009E102C001F0026A080E005E015202E1EC
:10016000006A08D0D89001BE04D0023601360006DD
:10017000F9D7019EABEF03F01450D8B471D0006EE4
:100180001850D8B46DD0002604E3810E002668E232
:1001900004D07F0E005E64E363E015C01CF01950CC
:1001A0001C1A158E198E17501B02F4CF1EF0165014
:1001B0001A02F4CF03F0F3CF1DF01B02F3501E26FA
:1001C000F4501D22000E032217501A02F3501E266F
:1001D000F4501D22000E026A0322022215501B0257
:1001E000F3501D26F4500322000E022215501A026D
:1001F000F3500326F4500222000E016A0122175028
:100200001902F3501D26F4500322000E022201228F
:1002100016501902F3500326F4500222000E012258
:1002200015501902F3500226F4500122002A01BE93
:1002300005D01D360336023601360006000E1DAE0F
:100240000AD0032A02220122015005E1025003E1F3
:10025000035001E1002A1CBE018E1CAE019E04D099
:10026000006A016A026A036ABCEF03F08E0E006E38
:100270001250005E13C002F014C001F0028E005252
:1002800009E0D890025202E1015204E00232013248
:10029000002EF7D713AE05D0011E021E012AD8B4D6
:1002A000022AC5EF03F01BC01FF01AC01EF01FC0CA
:1002B00003F01EC0E9FF1FC0EAFFEF522EE01DC091
:1002C00021F01CC020F021C003F020C0E9FF21C0B4
:1002D000EAFFEF520AE11A501E5C006E1B501F58D5
:1002E000036E00C001F021D010D01EC0E9FF1FC076
:1002F000EAFFEFCF22F021C003F020C0E9FF21C0C8
:10030000EAFFEF50225C01E104D0202AD8B4212A70
:10031000DAD71E2AD8B41F2ACAD71A501E5C006E1C
:100320001B501F58036E00C001F001EF02F01BC00C
:100330001FF01AC01EF01FC003F01EC0E9FF1FC04F
:10034000EAFFEF5228E01DC021F01CC020F021C0C0
:1003500003F020C0E9FF21C0EAFFEF5218E01EC001
:10036000E9FF1FC0EAFFEFCF22F021C003F020C059
:10037000E9FF21C0EAFFEF50225C05E11EC001F059
:100380001FC002F00BD0202AD8B4212AE0D71E2AA1
:10039000D8B41F2AD0D7000E016E026E1AEF02F0F9
:1003A0001BC01DF01AC01CF01DC003F01CC0E9FFEB
:1003B0001DC0EAFFEF5204E01C2AD8B41D2AF4D76E
:1003C0001A501C5C006E1B501D58036E00C001F0DB
:1003D000026E34EF02F01250131004E013C003F069
:1003E000125003D005C003F00450166E03C017F07E
:1003F00017C01BF016C01AF015C01DF014C01CF079
:1004000052D701501626000E172217C003F016C04F
:10041000E9FF17C0EAFFEF5204E1000E016E026E21
:100420002DD017C01BF016C01AF015C01DF014C057
:100430001CF07DD702C019F001C018F0185202E17B
:1004400019520DE018C0E9FF19C0EAFFEF6A182A37
:10045000D8B4192A19C005F018C004F00BD017C081
:100460001BF016C01AF09CD701501624046E0250DF
:100470001720056E16C001F017C002F01200006AC6
:10048000016A1B50D8901CB00026003201321CB209
:100490000026003201321CB40026003201321CB6A4
:1004A0000026003201321CB80026003201321CBA8C
:1004B0000026003201321CBC0026003201321CBE74
:1004C000002600320132CBEF02F0196A176A0A0ED9
:1004D000186E166A1450151003E1000E016EB9D0A3
:1004E0001950192A1424E96E000E1520EA6EEFCF78
:1004F0001AF01A502D080CE1010E176E1950192A26
:100500001424E96E000E1520EA6EEFCF1AF00CD01D
:100510001A502B0809E11950192A1424E96E000E0B
:100520001520EA6EEFCF1AF01A502F08D8B089D0F4
:100530001A503908D8A085D01A5030081EE1195039
:100540001424E96E000E1520EA6EEF50780809E0D9
:1005500019501424E96E000E1520EA6EEF50580869
:100560000CE1100E186E192A1950192A1424E96E7C
:10057000000E1520EA6EEFCF1AF018500A081AE1A3
:100580001A502F0816E21A50390813E30A0E1B6E90
:1005900016C01CF074D7300E1A5C0124166E195068
:1005A000192A1424E96E000E1520EA6EEFCF1AF016
:1005B000E7D747D01850100844E11A50600806E207
:1005C0001A507A0803E31A50DF0B01D01A501A6E42
:1005D0001A502F0803E21A50390806E21A50400850
:1005E00030E21A5046082DE31A502F080CE21A5038
:1005F000390809E316381B6EF00E1B16300E1A5C14
:100600001B24166E09D016381B6EF00E1B16410EF9
:100610001A5C0A0F1B24166E1950192A1424E96E4D
:10062000000E1520EA6EEFCF1AF01A50600806E2AD
:100630001A507A0803E31A50DF0B01D01A501A6ED1
:10064000C7D7172C04D018500A0801E1166C16C041
:1006500001F0FFEF03F01350125C05E394908B90D0
:1006600094928B8202D094908B8006EF04F012C09B
:1006700018F00A0E196EE4DC01C018F00A0E196EAB
:10068000DFDC00C013F012C018F00A0E196ED8DCBF
:1006900000C014F0956A13C08CFF96908D809692DE
:1006A0008D920A0E156E39DD956A14C08CFF9690F6
:1006B0008D9096928D820A0E156E2FDD09EF04F053
:1006C000F86AD09E810EAF6EA60EAC6E900EAB6E29
:1006D000C180C182C184C196070EB46E046A056AE6
:1006E000C190C182C184C186000E016EC250C70B89
:1006F0000110C26EC19CC28CC28EC18EC280C80E57
:10070000D56E850ECD6ED26A3A0E106E116A0F6AE2
:10071000100E0E6E040EF66E000EF76E0A0E126EBE
:100720007FDC190E126E180E136E9EDC0A0E9EA848
:10073000FED7AD6E0A0E156EF0DCC284C2B4FED7D1
:10074000C4CF03F0C3CF12F0C4CF13F0C4CF15F061
:10075000C3CF14F0F5D403C017F002C016F001C0E7
:1007600015F000C014F0900E1B6E3E0E1A6E7A0E3D
:10077000196E7D0E186E00D503C015F002C014F07E
:1007800001C013F000C012F071D501C00AF0120EC2
:10079000F66E000EF76E090E126E42DC0AC012F001
:1007A000180E136E61DC0A0E9EA8FED7AD6E0DC04A
:1007B000EAFF0CC0E9FFED6A9EAAFED7AECFECFFC0
:1007C0000D0EEF5CF9E1EC6A0DC013F00CC012F0F5
:1007D0000FC015F00EC014F0FEDD0DC013F00CC0FC
:1007E00012F00FC015F00EC014F0F5DD02C013F0CA
:1007F00001C012F002C015F001C014F066D601C0AD
:100800000BF00AC012F00BC013F025D70AC012F08B
:060810002ED793D7030070
:020000040030CA
:0E00000000220E0E000081000FC00FE00F4026
:00000001FF
;PIC18F458
;CRC=C165  CREATED="05-mai-17 17:14"
