:1000000075EF02F04454452E74726573683A2564A6
:100010000D0A00004454452E74656D703A25640D38
:100020000A000900F6CF17F0F7CF18F0F5509EA898
:10003000FED7AD6E17C0F6FF18C0F7FF162EF1D72A
:1000400012001D50016A1C5C03E21CC000F00CD0C1
:10005000006A080E1E6E1C3600361D50005CD8B0BB
:10006000006E01361E2EF7D71200200E17A8300E94
:10007000186E16C000F016AE08D0001E002A00C090
:1000800016F02D0E186E178E1780015016C01CF03A
:10009000640E1D6ED6DF00C016F0300E0124196EFE
:1000A00016C01CF00A0E1D6ECCDF300E00241B6E35
:1000B000300E01241A6E18C000F0300E195C04E0F6
:1000C000178217BE178412D018C019F0200E186EB0
:1000D000300E1A5C04E0178017BE178207D0D8A430
:1000E000178004E119C01AF0200E196E17B405D05C
:1000F00017B207D017B009D00CD018509EA8FED761
:10010000AD6E19509EA8FED7AD6E1A509EA8FED7B0
:10011000AD6E1B509EA8FED7AD6E1200EA6A190E96
:10012000E96EEF500DE0060E016E006A002EFED75C
:10013000012EFBD77B0E006E002EFED7EF2EF3D7DD
:1001400012008E0E006E19C001F018C002F0036A92
:10015000015209E102C001F0026A080E005E01527C
:1001600002E1006A08D0D89001BE04D00236013600
:100170000006F9D7019EC0EF02F01850D8B471D034
:10018000006E1C50D8B46DD0002604E3810E00260A
:1001900068E204D07F0E005E64E363E019C020F0E3
:1001A0001D50201A198E1D8E1B501F02F4CF22F0F5
:1001B0001A501E02F4CF03F0F3CF21F01F02F350C8
:1001C0002226F4502122000E03221B501E02F3505F
:1001D0002226F4502122000E026A03220222195024
:1001E0001F02F3502126F4500322000E0222195060
:1001F0001E02F3500326F4500222000E016A01226F
:100200001B501D02F3502126F4500322000E02223F
:1002100001221A501D02F3500326F4500222000E50
:10022000012219501D02F3500226F4500122002A27
:1002300001BE05D021360336023601360006000E17
:1002400021AE0AD0032A02220122015005E1025008
:1002500003E1035001E1002A20BE018E20AE019E81
:1002600004D0006A016A026A036AD1EF02F08E0EBE
:10027000006E1650005E17C002F018C001F0028E2A
:10028000005209E0D890025202E1015204E0023229
:100290000132002EF7D717AE05D0011E021E012A2B
:1002A000D8B4022ADAEF02F01750165C05E39490F6
:1002B0008B9094928B8202D094908B80E1EF02F02D
:1002C00016C01CF00A0E1D6EBCDE01C01CF00A0E2A
:1002D0001D6EB7DE00C017F016C01CF00A0E1D6EB2
:1002E000B0DE00C018F0956A17C08CFF96908D8024
:1002F00096928D920A0E196E11DF956A18C08CFFC6
:1003000096908D9096928D820A0E196E07DFE4EF1B
:1003100002F0006A016A1D50D8901EB0002600321B
:1003200001321EB20026003201321EB40026003215
:1003300001321EB60026003201321EB800260032FD
:1003400001321EBA0026003201321EBC00260032E5
:1003500001321EBE00260032013215EF02F01B6A88
:10036000196A0A0E1A6E186A1650171003E1000E69
:10037000016EB9D01B501B2A1624E96E000E1720FF
:10038000EA6EEFCF1CF01C502D080CE1010E196E27
:100390001B501B2A1624E96E000E1720EA6EEFCFC1
:1003A0001CF00CD01C502B0809E11B501B2A1624F2
:1003B000E96E000E1720EA6EEFCF1CF01C502F08DC
:1003C000D8B089D01C503908D8A085D01C5030082E
:1003D0001EE11B501624E96E000E1720EA6EEF5046
:1003E000780809E01B501624E96E000E1720EA6E0B
:1003F000EF5058080CE1100E1A6E1B2A1B501B2AD6
:100400001624E96E000E1720EA6EEFCF1CF01A508A
:100410000A081AE11C502F0816E21C50390813E391
:100420000A0E1D6E18C01EF074D7300E1C5C01241D
:10043000186E1B501B2A1624E96E000E1720EA6E58
:10044000EFCF1CF0E7D747D01A50100844E11C50FA
:10045000600806E21C507A0803E31C50DF0B01D051
:100460001C501C6E1C502F0803E21C50390806E279
:100470001C50400830E21C5046082DE31C502F0849
:100480000CE21C50390809E318381D6EF00E1D16D9
:10049000300E1C5C1D24186E09D018381D6EF00E2D
:1004A0001D16410E1C5C0A0F1D24186E1B501B2AC2
:1004B0001624E96E000E1720EA6EEFCF1CF01C50D8
:1004C000600806E21C507A0803E31C50DF0B01D0E1
:1004D0001C501C6EC7D7192C04D01A500A0801E111
:1004E000186C18C001F008EF03F0F86AD09E810E76
:1004F000AF6EA60EAC6E900EAB6EC180C182C18491
:10050000C196070EB46E046A056AC190C182C184A7
:10051000C186000E016EC250C70B0110C26EC19C95
:10052000C28CC28EC18EC280C80ED56E850ECD6EB5
:10053000D26A190E0B6E040EF66E000EF76E0A0EDE
:10054000166E6FDD0BC016F0180E176E8EDD0D0ED9
:100550009EA8FED7AD6E0A0E9EA8FED7AD6E0A0EFF
:10056000196EDCDDC284C2B4FED7C4CF03F0C3CFA2
:1005700016F0C4CF17F0C4CF19F0C3CF18F0E1D5EF
:1005800003C01BF002C01AF001C019F000C018F03F
:10059000900E1F6E3E0E1E6E7A0E1D6E7D0E1C6E30
:1005A000ECD503C019F002C018F001C017F000C06C
:1005B00016F05DD601C00AF00AC016F00BC017F0A5
:1005C00073D60AC016F07CD6140EF66E000EF76EC7
:1005D000090E166E26DD0AC016F0180E176E45DDE0
:1005E0000D0E9EA8FED7AD6E0A0E9EA8FED7AD6E6C
:1005F000EA6A0C0EE96EED6A9EAAFED7AECFECFF5A
:100600000D0EEF5CF9E1EC6A176A0C0E166EA7D6B8
:0806100001C00BF0A7D70300A5
:020000040030CA
:0E00000000220E0E000081000FC00FE00F4026
:00000001FF
;PIC18F458
;CRC=B08C  CREATED="12-mai-17 15:54"
