:04000000DFEF02F03C
:08000800046ED8CF05F0E0CF33
:1000100006F00001E9CF0CF0EACF07F0E1CF08F0DD
:10002000E2CF09F0D9CF0AF0DACF0BF0F3CF12F01C
:10003000F4CF13F0FACF14F0F5CF15F0F6CF16F099
:10004000F7CF17F000C00EF001C00FF002C010F0A3
:1000500003C011F09DAA30EF00F09EBA43EF01F00B
:100060000EC000F00FC001F010C002F011C003F08C
:100070000CC0E9FF07C0EAFF078E08C0E1FF09C016
:10008000E2FF0AC0D9FF0BC0DAFF12C0F3FF13C0B2
:10009000F4FF14C0FAFF15C0F5FF16C0F6FF17C035
:1000A000F7FF045006C0E0FF05C0D8FF1000006A4B
:1000B000016A4050D89041B000260032013241B26E
:1000C00000260032013241B400260032013241B62E
:1000D00000260032013241B800260032013241BA16
:1000E00000260032013241BC00260032013241BEFE
:1000F000002600320132E3EF00F03E6A3C6A0A0E4D
:100100003D6E3B6A39503A1003E1000E016EB9D0E2
:100110003E503E2A3924E96E000E3A20EA6EEFCFB7
:100120003FF03F502D080CE1010E3C6E3E503E2A40
:100130003924E96E000E3A20EA6EEFCF3FF00CD082
:100140003F502B0809E13E503E2A3924E96E000E4B
:100150003A20EA6EEFCF3FF03F502F08D8B089D059
:100160003F503908D8A085D03F5030081EE13E509E
:100170003924E96E000E3A20EA6EEF50780809E063
:100180003E503924E96E000E3A20EA6EEF505808CE
:100190000CE1100E3D6E3E2A3E503E2A3924E96E97
:1001A000000E3A20EA6EEFCF3FF03D500A081AE108
:1001B0003F502F0816E23F50390813E30A0E406EF5
:1001C0003BC041F074D7300E3F5C01243B6E3E5083
:1001D0003E2A3924E96E000E3A20EA6EEFCF3FF056
:1001E000E7D747D03D50100844E13F50600806E291
:1001F0003F507A0803E33F50DF0B01D03F503F6E82
:100200003F502F0803E23F50390806E23F504008B4
:1002100030E23F5046082DE33F502F080CE23F509C
:10022000390809E33B38406EF00E4016300E3F5C53
:1002300040243B6E09D03B38406EF00E4016410E14
:100240003F5C0A0F40243B6E3E503E2A3924E96E43
:10025000000E3A20EA6EEFCF3FF03F50600806E212
:100260003F507A0803E33F50DF0B01D03F503F6E11
:10027000C7D73C2C04D03D500A0801E13B6C3BC081
:1002800001F053EF01F0EA6A2F0EE96EED6A9EAAC3
:10029000FED7AECFECFF0D0EEF5CF9E1EC6A3A6AE7
:1002A0002F0E396E2AD701C01FF09E9A30EF00F052
:1002B0004454452E74726573683A25640D0A000033
:1002C0004454452E74656D703A25640D0A0009008A
:1002D000F6CF23F0F7CF24F0F5509EA8FED7AD6EF1
:1002E00023C0F6FF24C0F7FF222EF1D712002950B9
:1002F000016A285C03E228C000F00CD0006A080EF6
:100300002A6E283600362950005CD8B0006E0136BF
:100310002A2EF7D71200200E23A8300E246E22C0FA
:1003200000F022AE08D0001E002A00C022F02D0EE0
:10033000246E238E2380015022C028F0640E296E83
:10034000D6DF00C022F0300E0124256E22C028F036
:100350000A0E296ECCDF300E0024276E300E0124E9
:10036000266E24C000F0300E255C04E0238223BEFC
:10037000238412D024C025F0200E246E300E265C7B
:1003800004E0238023BE238207D0D8A4238004E185
:1003900025C026F0200E256E23B405D023B207D049
:1003A00023B009D00CD024509EA8FED7AD6E2550A6
:1003B0009EA8FED7AD6E26509EA8FED7AD6E2750E4
:1003C0009EA8FED7AD6E1200EA6A250EE96EEF50C8
:1003D0000DE0060E016E006A002EFED7012EFBD73F
:1003E0007B0E006E002EFED7EF2EF3D712008E0E7E
:1003F000006E25C001F024C002F0036A015209E139
:1004000002C001F0026A080E005E015202E1006AB9
:1004100008D0D89001BE04D0023601360006F9D7C4
:10042000019E30EF03F02450D8B471D0006E2850F4
:10043000D8B46DD0002604E3810E002668E204D013
:100440007F0E005E64E363E025C02CF029502C1A77
:10045000258E298E27502B02F4CF2EF026502A020B
:10046000F4CF03F0F3CF2DF02B02F3502E26F450EF
:100470002D22000E032227502A02F3502E26F4507C
:100480002D22000E026A0322022225502B02F35075
:100490002D26F4500322000E022225502A02F3508A
:1004A0000326F4500222000E016A0122275029027D
:1004B000F3502D26F4500322000E02220122265072
:1004C0002902F3500326F4500222000E0122255087
:1004D0002902F3500226F4500122002A01BE05D061
:1004E0002D360336023601360006000E2DAE0AD038
:1004F000032A02220122015005E1025003E10350C8
:1005000001E1002A2CBE018E2CAE019E04D0006AAF
:10051000016A026A036A41EF03F08E0E006E2250F8
:10052000005E23C002F024C001F0028E005209E0F8
:10053000D890025202E1015204E002320132002E50
:10054000F7D723AE05D0011E021E012AD8B4022A15
:100550004AEF03F02350225C05E394908B90949231
:100560008B8202D094908B8051EF03F022C028F050
:100570000A0E296EBCDE01C028F00A0E296EB7DE15
:1005800000C023F022C028F00A0E296EB0DE00C0A1
:1005900024F0956A23C08CFF96908D8096928D9260
:1005A0000A0E256E11DF956A24C08CFF96908D90FF
:1005B00096928D820A0E256E07DF54EF03F0F86ADB
:1005C000D09E078E810EAF6EA60EAC6E900EAB6EF7
:1005D0000F0E1F6EC180C182C184C196070EB46E1A
:1005E000196A1A6AC190C182C184C186000E016E67
:1005F000C250C70B0110C26EC19CC28CC28EC18E8C
:10060000C280C80ED56E850ECD6ED26AC00EF212B3
:100610009D8A180E206EB00EF66E020EF76E0A0E50
:10062000226E55DE1FC022F0180E236E74DE0D0EF2
:100630009EA8FED7AD6E0A0E9EA8FED7AD6E0A0E1E
:10064000256EC2DEC284C2B4FED7C4CF03F0C3CFCE
:1006500022F0C4CF23F0C4CF25F0C3CF24F0C7D6F7
:1006600003C027F002C026F001C025F000C024F02E
:10067000900E2B6E3E0E2A6E7A0E296E7D0E286E1F
:10068000D2D603C025F002C024F001C023F000C080
:1006900022F043D701C021F021C022F01FC023F077
:1006A00059D721C022F062D72050215C16E021C02A
:1006B00020F0C00EF66E020EF76E090E226E07DEF7
:1006C00021C022F0180E236E26DE0D0E9EA8FED746
:0E06D000AD6E0A0E9EA8FED7AD6EB4D7030025
:020000040030CA
:0E00000000220E0E000081000FC00FE00F4026
:00000001FF
;PIC18F458
;CRC=ADEC  CREATED="15-mai-17 16:29"
