:100000009EEF02F04454452E74726573683A25647D
:100010000A004454452E74656D703A25640D0A003B
:1000200074726573686F6C64207570646174653A8E
:100030002025640D0A0074726573686F6C64207308
:100040007472696E673A2025730D0A000900F6CFB5
:1000500019F0F7CF1AF0F5509EA8FED7AD6E19C073
:10006000F6FF1AC0F7FF182EF1D712001F50016AD1
:100070001E5C03E21EC000F00CD0006A080E206E69
:100080001E3600361F50005CD8B0006E0136202EA0
:10009000F7D71200200E19A8300E1A6E18C000F003
:1000A00018AE08D0001E002A00C018F02D0E1A6EDF
:1000B000198E1980015018C01EF0640E1F6ED6DF15
:1000C00000C018F0300E01241B6E18C01EF00A0E7E
:1000D0001F6ECCDF300E00241D6E300E01241C6E0E
:1000E0001AC000F0300E1B5C04E0198219BE19849E
:1000F00012D01AC01BF0200E1A6E300E1C5C04E0E9
:10010000198019BE198207D0D8A4198004E11BC038
:100110001CF0200E1B6E19B405D019B207D019B00F
:1001200009D00CD01A509EA8FED7AD6E1B509EA8C9
:10013000FED7AD6E1C509EA8FED7AD6E1D509EA87A
:10014000FED7AD6E1200EA6A1B0EE96EEF500DE0AD
:10015000060E016E006A002EFED7012EFBD77B0E25
:10016000006E002EFED7EF2EF3D712008E0E006E1B
:100170001BC001F01AC002F0036A015209E102C07B
:1001800001F0026A080E005E015202E1006A08D026
:10019000D89001BE04D0023601360006F9D7019E80
:1001A000E7EF02F01A50D8B471D0006E1E50D8B4E8
:1001B0006DD0002604E3810E002668E204D07F0E95
:1001C000005E64E363E01BC022F01F50221A1B8E06
:1001D0001F8E1D502102F4CF24F01C502002F4CFBA
:1001E00003F0F3CF23F02102F3502426F45023220E
:1001F000000E03221D502002F3502426F450232227
:10020000000E026A032202221B502102F350232611
:10021000F4500322000E02221B502002F35003264A
:10022000F4500222000E016A01221D501F02F350F9
:100230002326F4500322000E022201221C501F022A
:10024000F3500326F4500222000E01221B501F021D
:10025000F3500226F4500122002A01BE05D02336B5
:100260000336023601360006000E23AE0AD0032AFA
:1002700002220122015005E1025003E1035001E195
:10028000002A22BE018E22AE019E04D0006A016ABD
:10029000026A036AF8EF02F08E0E006E1850005EDC
:1002A00019C002F01AC001F0028E005209E0D89085
:1002B000025202E1015204E002320132002EF7D76D
:1002C00019AE05D0011E021E012AD8B4022A01EF80
:1002D00003F01950185C05E394908B9094928B82F4
:1002E00002D094908B8008EF03F018C01EF00A0E25
:1002F0001F6EBCDE01C01EF00A0E1F6EB7DE00C00E
:1003000019F018C01EF00A0E1F6EB0DE00C01AF001
:10031000956A19C08CFF96908D8096928D920A0EE8
:100320001B6E11DF956A1AC08CFF96908D90969285
:100330008D820A0E1B6E07DF0BEF03F0EF5210E009
:10034000EACF19F0E9CF18F0EF509EA8FED7AD6EB6
:1003500019C0EAFF18C0E9FFE92AD8B4EA2AEED7A3
:100360004AEF03F0006A016A1F50D89020B00026BF
:100370000032013220B200260032013220B40026C1
:100380000032013220B600260032013220B80026A9
:100390000032013220BA00260032013220BC002691
:1003A0000032013220BE0026003201323EEF02F060
:1003B0001D6A1B6A0A0E1C6E1A6A1850191003E196
:1003C000000E016EB9D01D501D2A1824E96E000ED2
:1003D0001920EA6EEFCF1EF01E502D080CE1010E21
:1003E0001B6E1D501D2A1824E96E000E1920EA6E9E
:1003F000EFCF1EF00CD01E502B0809E11D501D2A16
:100400001824E96E000E1920EA6EEFCF1EF01E5080
:100410002F08D8B089D01E503908D8A085D01E50DA
:1004200030081EE11D501824E96E000E1920EA6EF6
:10043000EF50780809E01D501824E96E000E1920CD
:10044000EA6EEF5058080CE1100E1C6E1D2A1D506C
:100450001D2A1824E96E000E1920EA6EEFCF1EF057
:100460001C500A081AE11E502F0816E21E503908C7
:1004700013E30A0E1F6E1AC020F074D7300E1E5CF4
:1004800001241A6E1D501D2A1824E96E000E192031
:10049000EA6EEFCF1EF0E7D747D01C50100844E1BA
:1004A0001E50600806E21E507A0803E31E50DF0B60
:1004B00001D01E501E6E1E502F0803E21E50390838
:1004C00006E21E50400830E21E5046082DE31E5042
:1004D0002F080CE21E50390809E31A381F6EF00E7F
:1004E0001F16300E1E5C1F241A6E09D01A381F6E9C
:1004F000F00E1F16410E1E5C0A0F1F241A6E1D50AF
:100500001D2A1824E96E000E1920EA6EEFCF1EF0A6
:100510001E50600806E21E507A0803E31E50DF0BEF
:1005200001D01E501E6EC7D71B2C04D01C500A08C9
:1005300001E11A6C1AC001F056EF03F0F86AD09E80
:10054000810EAF6EA60EAC6E900EAB6E0B6A0A6A91
:10055000C180C182C184C196070EB46E046A056A67
:10056000C190C182C184C186000E016EC250C70B0A
:100570000110C26EC19CC28CC28EC18EC280C80ED8
:10058000D56E850ECD6ED26A190E0D6E040EF66E06
:10059000000EF76E0A0E186E59DD0DC018F0180E19
:1005A000196E78DD0A0E9EA8FED7AD6E0A0E1B6E80
:1005B000CADDC284C2B4FED7C4CF03F0C3CF18F0E3
:1005C000C4CF19F0C4CF1BF0C3CF1AF0CFD503C0EE
:1005D0001DF002C01CF001C01BF000C01AF0900E0C
:1005E000216E3E0E206E7A0E1F6E7D0E1E6EDAD5C7
:1005F00003C01BF002C01AF001C019F000C018F0CF
:100600004BD601C00CF00CC018F00DC019F061D62B
:100610000CC018F06AD6120EF66E000EF76E090EB8
:10062000186E14DD0CC018F0180E196E33DD0D0EA7
:100630009EA8FED7AD6E0A0E9EA8FED7AD6E200E08
:10064000F66E000EF76E110E186E00DD0DC018F07C
:10065000180E196E1FDD0D0E9EA8FED7AD6E0A0E88
:100660009EA8FED7AD6EEA6A0E0EE96EED6A9EAAEE
:10067000FED7AECFECFF0D0EEF5CF9E1EC6A360E63
:10068000F66E000EF76E110E186EE0DCEA6A0E0EC2
:10069000E96E54D60D0E9EA8FED7AD6E0A0E9EA82A
:1006A000FED7AD6E196A0E0E186E82D601C00DF01F
:0406B00080D70300EC
:020000040030CA
:0E00000000220E0E000081000FC00FE00F4026
:00000001FF
;PIC18F458
;CRC=02D6  CREATED="12-mai-17 15:46"
