:100000002AEF00F00A50016A095C03E209C000F01F
:100010000CD0006A080E0B6E093600360A50005CE0
:10002000D8B0006E01360B2EF7D71200EA6A070E21
:10003000E96EEF500DE0060E016E006A002EFED74D
:10004000012EFBD77B0E006E002EFED7EF2EF3D7CE
:100050007AEF00F0F86AD09E0080C180C182C1842E
:10006000C196070EB46EC190C182C184C186C19C85
:10007000C28CC28EC18EC280000E016EC250C70BF0
:100080000110C26EC80ED56EB50ECD6E9D809D8AD4
:10009000C00EF212D26AC284C2B4FED7C3CF07F038
:1000A000C4CF08F0D890C430036EC330026E056E22
:1000B00005C009F00A0E0A6EA5DF00C006F0956AB9
:1000C00006C08CFF0650055C086E096E0A0E0A6EAB
:1000D00099DF01C009F00A0E0A6E94DF00C006F035
:1000E0000638076EF00E0716956A07C08CFF640E7F
:0800F000076E9CD7D0D7030076
:020000040030CA
:0E00000000220E0E000081000FC00FE00F4026
:00000001FF
;PIC18F458
;CRC=62B0  CREATED="14-févr.-17 12:50"
